:020000040000FA
:060000000A128A110E280D
:10000800FE00030E83120313AE000A08AF000A12A3
:100018008A11762E0A128A1111288317A630FD003C
:100028001030FE008330FF00A23084000A168A15C3
:100038007C260A128A118313DC30FD001E30FE0074
:10004800A430FF00BE3084000A168A157C260A12E6
:100058008A11A0308400BE300A128A1503200A12C1
:100068008A11543084005C300A128A150320D301A7
:1000780083010A128A15CB2C02300A168A158926A2
:100088000A128A118316900091019201930101309E
:100098000A168A1589260A128A1183169400950170
:1000A800140883120313B20083160317150883126A
:1000B8000313B3006430B4000030B5000A168A1583
:1000C800C2260A128A113208831603179600831271
:1000D800031333088316031797009801990100301A
:1000E8000A168A1589260A128A1183169A009B0114
:1000F8009C019D011D0883120313B5008316031785
:100108001C0883120313B400831603171B088312F9
:100118000313B300831603171A0883120313B200DC
:100128000030B9000030B8002730B7001030B600F2
:100138000A168A1575270A128A11320883160317B8
:1001480096078312031333080318330FAC28AF281C
:100158008316031797078312031334080318340F01
:10016800B628B9288316031798078312031335088E
:100178000318350A831603179907160890071708F6
:100188000318170FC828C928910718080318180F4B
:10019800CE28CF28920719080318190A93071308BD
:1001A8000313D300031712080313D200031711080F
:1001B8000313D100031710080313D00005300A16E3
:1001C8008A1589260A128A118316900091019201D4
:1001D800930104300A168A1589260A128A11831691
:1001E80094009501140883120313B20083160317B1
:1001F800150883120313B3006430B4000030B5004F
:100208000A168A15C2260A128A113208831603179B
:100218009600831203133308831603179700980177
:10022800990103300A168A1589260A128A1183163B
:100238009A009B019C019D011D0883120313B500C0
:10024800831603171C0883120313B40083160317BD
:100258001B0883120313B300831603171A088312AB
:100268000313B2000030B9000030B8002730B700DF
:100278001030B6000A168A1575270A128A11320834
:100288008316031796078312031333080318330FD3
:100298004E2951298316031797078312031334082D
:1002A8000318340F58295B298316031798078312FC
:1002B800031335080318350A831603179907160818
:1002C800900717080318170F6A296B299107180850
:1002D8000318180F70297129920719080318190AA9
:1002E800930713080313CB00031712080313CA005C
:1002F800031711080313C900031710080313C800D4
:1003080008300A168A1589260A128A11831690005F
:1003180091019201930107300A168A1589260A125B
:100328008A11831694009501140883120313B200EE
:1003380083160317150883120313B3006430B4003F
:100348000030B5000A168A15C2260A128A11320828
:1003580083160317960083120313330883160317B3
:1003680097009801990106300A168A1589260A12FB
:100378008A1183169A009B019C019D011D08831216
:100388000313B500831603171C0883120313B40064
:10039800831603171B0883120313B300831603176E
:1003A8001A0883120313B2000030B9000030B800F5
:1003B8002730B7001030B6000A168A1575270A12BA
:1003C8008A1132088316031796078312031333081A
:1003D8000318330FF029F32983160317970783129D
:1003E800031334080318340FFA29FD298316031759
:1003F80098078312031335080318350A8316031761
:1004080099071608900717080318170F0C2A0D2AC2
:10041800910718080318180F122A132A92071908A7
:100428000318190A930713080313DB0003171208AC
:100438000313DA00031711080313D9000317100870
:100448000313D8000B300A168A1589260A128A1156
:10045800831690009101920193010A300A168A15B9
:1004680089260A128A1183169400950114088312AA
:100478000313B20083160317150883120313B3007E
:100488006430B4000030B5000A168A15C2260A1274
:100498008A11320883160317960083120313330850
:1004A8008316031797009801990109300A168A15CF
:1004B80089260A128A1183169A009B019C019D01C4
:1004C8001D0883120313B500831603171C08831233
:1004D8000313B400831603171B0883120313B30016
:1004E800831603171A0883120313B2000030B900E9
:1004F8000030B8002730B7001030B6000A168A1549
:1005080075270A128A113208831603179607831271
:10051800031333080318330F922A952A83160317F7
:1005280097078312031334080318340F9C2A9F2A51
:100538008316031798078312031335080318350A1F
:100548008316031799071608900717080318170F3B
:10055800AE2AAF2A910718080318180FB42AB52A2B
:10056800920719080318190A930713080313CF00F1
:10057800031712080313CE00031711080313CD0045
:10058800031710080313CC000E300A168A158926A3
:100598000A128A11831690009101920193010D307D
:1005A8000A168A1589260A128A118316940095015B
:1005B800140883120313B200831603171508831255
:1005C8000313B3006430B4000030B5000A168A156E
:1005D800C2260A128A11320883160317960083125C
:1005E80003133308831603179700980199010C30F9
:1005F8000A168A1589260A128A1183169A009B01FF
:100608009C019D011D0883120313B500831603176F
:100618001C0883120313B400831603171B088312E4
:100628000313B300831603171A0883120313B200C7
:100638000030B9000030B8002730B7001030B600DD
:100648000A168A1575270A128A11320883160317A3
:1006580096078312031333080318330F342B372BF1
:100668008316031797078312031334080318340FEC
:100678003E2B412B83160317980783120313350863
:100688000318350A831603179907160890071708E1
:100698000318170F502B512B910718080318180F20
:1006A800562B572B920719080318190A9307130892
:1006B8000313D700031712080313D60003171108F2
:1006C8000313D500031710080313D40013300A16B8
:1006D8008A1589260A128A118316900091019201BF
:1006E800930112300A168A1589260A128A1183166E
:1006F80094009501140883120313B200831603179C
:10070800150883120313B3006430B4000030B50039
:100718000A168A15C2260A128A1132088316031786
:100728009600831203133308831603179700980162
:10073800990111300A168A1589260A128A11831618
:100748009A009B019C019D011D0883120313B500AB
:10075800831603171C0883120313B40083160317A8
:100768001B0883120313B300831603171A08831296
:100778000313B2000030B9000030B8002730B700CA
:100788001030B6000A168A1575270A128A1132081F
:100798008316031796078312031333080318330FBE
:1007A800D62BD92B83160317970783120313340804
:1007B8000318340FE02BE32B8316031798078312D3
:1007C800031335080318350A831603179907160803
:1007D800900717080318170FF22BF32B9107180827
:1007E8000318180FF82BF92B920719080318190A80
:1007F800930713080313EF00031712080313EE00FF
:10080800031711080313ED00031710080313EC0076
:1008180016300A168A1589260A128A11831690003C
:1008280091019201930115300A168A1589260A1238
:100838008A11831694009501140883120313B200D9
:1008480083160317150883120313B3006430B4002A
:100858000030B5000A168A15C2260A128A11320813
:10086800831603179600831203133308831603179E
:1008780097009801990114300A168A1589260A12D8
:100888008A1183169A009B019C019D011D08831201
:100898000313B500831603171C0883120313B4004F
:1008A800831603171B0883120313B3008316031759
:1008B8001A0883120313B2000030B9000030B800E0
:1008C8002730B7001030B6000A168A1575270A12A5
:1008D8008A11320883160317960783120313330805
:1008E8000318330F782C7B2C831603179707831272
:1008F800031334080318340F822C852C831603172E
:1009080098078312031335080318350A831603174B
:1009180099071608900717080318170F942C952C99
:10092800910718080318180F9A2C9B2C920719087E
:100938000318190A930713080313EB000317120887
:100948000313EA00031711080313E900031710083B
:100958000313E80019300A168A1589260A128A1123
:100968008316900091019201930118300A168A1596
:1009780089260A128A118316940095011408831295
:100988000313B20083160317150883120313B30069
:100998006430B4000030B5000A168A15C2260A125F
:1009A8008A1132088316031796008312031333083B
:1009B8008316031797009801990117300A168A15AC
:1009C80089260A128A1183169A009B019C019D01AF
:1009D8001D0883120313B500831603171C0883121E
:1009E8000313B400831603171B0883120313B30001
:1009F800831603171A0883120313B2000030B900D4
:100A08000030B8002730B7001030B6000A168A1533
:100A180075270A128A11320883160317960783125C
:100A2800031333080318330F1A2D1D2D83160317CC
:100A380097078312031334080318340F242D272D26
:100A48008316031798078312031335080318350A0A
:100A58008316031799071608900717080318170F26
:100A6800362D372D910718080318180F3C2D3D2DEA
:100A7800920719080318190A930713088312031316
:100A8800DF0083160317120883120313DE00831690
:100A98000317110883120313DD00831603171008C8
:100AA80083120313DC0083165708031D692D0F30CA
:100AB8005602031D672D42305502031D672D403035
:100AC8005402031D672D031C732D00308316031376
:100AD800D7000030D6000030D5006430D40083162B
:100AE80003136F08031D862D0F306E02031D842D1E
:100AF80042306D02031D842D40306C02031D842D8D
:100B0800031C902D003083160313EF000030EE0015
:100B18000030ED006430EC00831603135308031D06
:100B2800A22D5208031DA22D27305102031DA02D0E
:100B380010305002031DA02D031CAC2D003083166D
:100B48000313D3000030D2000330D100E730D000C7
:100B5800831603134B08031DBE2D4A08031DBE2D23
:100B680027304902031DBC2D10304802031DBC2D3F
:100B7800031CC82D003083160313CB000030CA00B5
:100B88000330C900DD30C800831603136B08031D4A
:100B9800DB2D01306A02031DD92D86306902031D41
:100BA800D92DA0306802031DD92D031CE52D003076
:100BB80083160313EB000030EA000030E9006430CC
:100BC800E800831203135F08031DF82D01305E024D
:100BD800031DF62D86305D02031DF62DA0305C0244
:100BE800031DF62D031C022E003083120313DF00B1
:100BF8000030DE000030DD006430DC0083160313B3
:100C08005B08031D142E5A08031D142E27305902A1
:100C1800031D122E10305802031D122E031C1E2E07
:100C2800003083160313DB000030DA000130D900EE
:100C3800F430D800831603134F08031D302E4E08D6
:100C4800031D302E27304D02031D2E2E10304C026E
:100C5800031D2E2E031C3A2E003083160313CF00DB
:100C68000030CE000030CD000430CC0083160313D2
:100C78004F088312C20083164E088312C1008316E0
:100C88004D088312C00083164C088312BF008316D8
:100C98005B088312C60083165A088312C5008316A0
:100CA80059088312C400831658088312C3000A1611
:100CB8008A118F2142088316A300831241088316E4
:100CC800A200831240088316A10083123F088316EE
:100CD800A0000030A7000030A6000030A5000030BA
:100CE800A40008000B1C982E861F061B7C2E53158B
:100CF8005319861B882E061F882E0130AD002D083B
:100D08008316BA00831253145319861F942E061B98
:100D1800942E0230AD002D088316BA0083125314A6
:100D2800861B061F982E53110C1CBC2E0130AD00DB
:100D38002D088316B90701308312AD002D088316DC
:100D4800B8070B3083128F00E5308E000C10831625
:100D5800320833040319B62E0130B0070318B10A5C
:100D68000030B1070130B2070318B30A0030B307E7
:100D78008B1CBC2F0030F3000030F2002730F1004C
:100D88001030F00083165708F7005608F60055088B
:100D9800F5005408F4000A168A1131210A128A1142
:100DA80070088312AD002D08AA000C300A168A15A7
:100DB80005270A128A11003083120313A30000309A
:100DC800A2000030A1006430A0000030F300003021
:100DD800F2000030F1006430F00083165708F70085
:100DE8005608F6005508F5005408F4000A168A114A
:100DF80031210A128A1173088312A7007208A6000B
:100E08007108A5007008A4000A168A15B4270A12EA
:100E18008A112008AD002D08AA000D300A168A157F
:100E280005270A128A11003083120313A300003029
:100E3800A2000030A1006430A00083165708831276
:100E4800A700831656088312A60083165508831236
:100E5800A500831654088312A4000A168A15B4271D
:100E68000A128A112008AD002D08AA000E300A16B1
:100E78008A1505270A128A110030F3000030F200A3
:100E88002730F1001030F000831203135F08F700D9
:100E98005E08F6005D08F5005C08F4000A168A1181
:100EA80031210A128A1170088312AD002D08AA0098
:100EB80017300A168A1505270A128A11003083127C
:100EC8000313A3000030A2000030A1006430A0008A
:100ED8000030F3000030F2000030F1006430F00020
:100EE8005F08F7005E08F6005D08F5005C08F4008E
:100EF8000A168A1131210A128A1173088312A7006F
:100F08007208A6007108A5007008A4000A168A15C0
:100F1800B4270A128A112008AD002D08AA0018303B
:100F28000A168A1505270A128A110030831203133C
:100F3800A3000030A2000030A1006430A0005F08C8
:100F4800A7005E08A6005D08A5005C08A4000A16B4
:100F58008A15B4270A128A112008AD002D08AA00A4
:100F680019300A168A1505270A128A118B138B1055
:100F78000B10831203132F088A002E0E8300FE0E17
:100F88007E0E090083165708031DD82F0F3056020E
:100F9800031DD62F42305502031DD62F4B30540265
:100FA800031DD62F031CE22F003083160313D7002E
:100FB8000030D6000030D5000030D400831603136B
:100FC8005708031DF52F0F305602031DF32F42302B
:100FD8005502031DF32F40305402031DF32F031C49
:100FE8000800003083160313D7000F30D6004230B4
:080FF800D5003F30D4000800D1
:1010060064008001840A04060319003404060428D7
:1010160083120313B501891C14288030B3003308EA
:10102600B507091D1A282030B3003308B507531D2C
:1010360020280830B3003308B50735080A168A1584
:10104600E3260A128A150515051485108511073041
:1010560083120313B4007C30B300B30B3028B40BF7
:101066003028000008005B03031D9F28003083160C
:10107600DF000030DE002730DD001030DC00831298
:1010860052088316E300831251088316E200831286
:1010960050088316E10083124F088316E0000A16F3
:1010A6008A1187200A128A155F08031D67285E08C1
:1010B600031D672823305D02031D652828305C0266
:1010C600031D6528031C8F28283083160313E400AC
:1010D6002330E5000030E6000030E70064088312A4
:1010E600CF0283166508031C650F7A287C288312B5
:1010F600D00283166608031C660F82288428831292
:10110600D10283166708031C670F8A288C2883126E
:10111600D202831683129F28E83083120313CF0767
:10112600033003180430D007003003180130D1070C
:10113600003003180130D20702305B06031D09296F
:1011460000308316DF000030DE000330DD00E830BB
:10115600DC00831252088316E300831251088316BB
:10116600E200831250088316E10083124F088316AB
:10117600E0000A168A1187200A128A155F08031DE5
:10118600D1285E08031DD12803305D02031DCF2838
:1011960084305C02031DCF28031CF9288430831693
:1011A6000313E4000330E5000030E6000030E700FA
:1011B60064088312CF0283166508031C650FE428B2
:1011C600E6288312D00283166608031C660FEC28F5
:1011D600EE288312D10283166708031C670FF428D2
:1011E600F6288312D20283168312092964308312E9
:1011F6000313CF07003003180130D007003003185F
:101206000130D107003003180130D20703305B06E6
:10121600031D722900308316DF000030DE00003027
:10122600DD006430DC00831252088316E30083126B
:1012360051088316E200831250088316E1008312D8
:101246004F088316E0000A168A1187200A128A15AB
:101256005F08031D3A295E08031D3A295D08031D30
:101266003A295A305C02031D3829031C62295A3078
:1012760083160313E4000030E5000030E60000307A
:10128600E70064088312CF0283166508031C650F06
:101296004D294F298312D00283166608031C660F58
:1012A600552957298312D10283166708031C670F35
:1012B6005D295F298312D2028316831272290A30AE
:1012C60083120313CF07003003180130D007003014
:1012D60003180130D107003003180130D20704305B
:1012E6005B06031D080000308316DF000030DE00B9
:1012F6000030DD000A30DC00831252088316E3005A
:10130600831251088316E200831250088316E10007
:1013160083124F088316E0000A168A1187200A12E4
:101326008A155F08031DA3295E08031DA3295D080E
:10133600031DA32909305C02031DA129031CCB2927
:10134600093083160313E4000030E5000030E600A0
:101356000030E70064088312CF0283166508031C79
:10136600650FB629B8298312D00283166608031CB6
:10137600660FBE29C0298312D10283166708031C93
:10138600670FC629C8298312D20283168312080062
:10139600013083120313CF07003003180130D00742
:1013A600003003180130D107003003180130D2078E
:1013B60008003C08031908000A168A153E260A1278
:1013C6008A15003A0319080083163B080319BC2C3A
:1013D60003303B06031D082A94302C0626300319D9
:1013E6002D062E042F040319082A83160313BC01A5
:1013F600BB018312DB0100308316AF000030AE0064
:101406000030AD000030AC0008008316031353080B
:10141600520451045004031D182A0030D300003032
:10142600D2000330D100E730D0004B084A0449040B
:101436004804031D262A0030CB000030CA000330C2
:10144600C900DD30C8005B085A0459045804031D5E
:10145600342A0030DB000030DA000130D900F430E5
:10146600D8004F084E044D044C04031D422A003098
:10147600CF000030CE000030CD000430CC00BB01E0
:101486008312DB010030C2000030C1002730C000EB
:101496001030BF00831653088312C6008316520805
:1014A6008312C500831651088312C40083165008A0
:1014B6008312C3000A168A118F210A128A153F0861
:1014C600D2005208CF0000300A168A1529270A12C0
:1014D6008A1500300313DF000030DE000030DD0027
:1014E6006430DC0000308312C2000030C1000030DE
:1014F600C0006430BF00831653088312C6008316EB
:1015060052088312C500831651088312C40083163D
:1015160050088312C3000A168A118F210A128A15EF
:1015260042088316E300831241088316E200831201
:1015360040088316E10083123F088316E0000A166E
:101546008A1187200A128A155C088312D200520873
:10155600CF0001300A168A1529270A128A1500308B
:101566000313DF000030DE000030DD006430DC00F5
:101576005308E3005208E2005108E1005008E00079
:101586000A168A1187200A128A155C088312D2006D
:101596005208CF0002300A168A1529270A128A1520
:1015A600003083120313C2000030C1002730C00090
:1015B6001030BF0083164B088312C60083164A08F4
:1015C6008312C500831649088312C400831648088F
:1015D6008312C3000A168A118F210A128A153F0840
:1015E600D2005208CF0003300A168A1529270A129C
:1015F6008A1500300313DF000030DE000030DD0006
:101606006430DC0000308312C2000030C1000030BC
:10161600C0006430BF0083164B088312C6008316D1
:101626004A088312C500831649088312C40083162C
:1016360048088312C3000A168A118F210A128A15D6
:1016460042088316E300831241088316E2008312E0
:1016560040088316E10083123F088316E0000A164D
:101666008A1187200A128A155C088312D200520852
:10167600CF0004300A168A1529270A128A15003067
:101686000313DF000030DE000030DD006430DC00D4
:101696004B08E3004A08E2004908E1004808E00078
:1016A6000A168A1187200A128A155C088312D2004C
:1016B6005208CF0005300A168A1529270A128A15FC
:1016C600003083120313C2000030C1002730C0006F
:1016D6001030BF0083165B088312C60083165A08B3
:1016E6008312C500831659088312C400831658084E
:1016F6008312C3000A168A118F210A128A153F081F
:10170600D2005208CF0006300A168A1529270A1277
:101716008A1500300313DF000030DE000030DD00E4
:101726006430DC0000308312C2000030C10000309B
:10173600C0006430BF0083165B088312C6008316A0
:101746005A088312C500831659088312C4008316EB
:1017560058088312C3000A168A118F210A128A15A5
:1017660042088316E300831241088316E2008312BF
:1017760040088316E10083123F088316E0000A162C
:101786008A1187200A128A155C088312D200520831
:10179600CF0007300A168A1529270A128A15003043
:1017A6000313DF000030DE000030DD006430DC00B3
:1017B6005B08E3005A08E2005908E1005808E00017
:1017C6000A168A1187200A128A155C088312D2002B
:1017D6005208CF0008300A168A1529270A128A15D8
:1017E600003083120313C2000030C1002730C0004E
:1017F6001030BF0083164F088312C60083164E08AA
:101806008312C50083164D088312C40083164C0844
:101816008312C3000A168A118F210A128A153F08FD
:10182600D2005208CF0009300A168A1529270A1253
:101836008A1500300313DF000030DE000030DD00C3
:101846006430DC0000308312C2000030C10000307A
:10185600C0006430BF0083164F088312C60083168B
:101866004E088312C50083164D088312C4008316E2
:101876004C088312C3000A168A118F210A128A1590
:1018860042088316E300831241088316E20083129E
:1018960040088316E10083123F088316E0000A160B
:1018A6008A1187200A128A155C088312D200520810
:1018B600CF000A300A168A1529270A128A1500301F
:1018C6000313DF000030DE000030DD006430DC0092
:1018D6004F08E3004E08E2004D08E1004C08E00026
:1018E6000A168A1187200A128A155C088312D2000A
:1018F6005208CF000B300A168A1529270A128A15B4
:10190600013083120313D20052088316BC074F0816
:101916008312C20083164E088312C10083164D0837
:101926008312C00083164C088312BF0083165B081F
:101936008312C60083165A088312C50083165908F7
:101946008312C400831658088312C3000A168A112C
:101956008F2142088316A300831241088316A20032
:10196600831240088316A10083123F088316A00045
:1019760008003B08031D08003C088312D2005208E9
:101986008316BB0001308312D2005208DB00080028
:101996000A168A154D270A128A150A128A1140203C
:1019A6000A128A150A168A116D240A128A150A1253
:1019B6008A15DC210A128A150A168A154C260A127D
:1019C6008A15003A0319662E83163D08031D4C2E10
:1019D60057085604550454040319902D5708EF0070
:1019E6005608EE005508ED005408EC00003083124E
:1019F600C2000030C1002730C0001030BF0083167F
:101A06006F088312C60083166E088312C5008316FC
:101A16006D088312C40083166C088312C3000A166D
:101A26008A118F210A128A153F08831603179E0012
:101A36001E0883120313CF0011300A168A152927B0
:101A46000A128A1500300313DF000030DE00003072
:101A5600DD006430DC0000308312C2000030C100BB
:101A66000030C0006430BF0083166F088312C600C2
:101A760083166E088312C50083166D088312C40090
:101A860083166C088312C3000A168A118F210A1264
:101A96008A1542088316E300831241088316E20082
:101AA600831240088316E10083123F088316E00084
:101AB6000A168A1187200A128A155C0803179E00E7
:101AC6001E0883120313CF0012300A168A1529271F
:101AD6000A128A1500300313DF000030DE000030E2
:101AE600DD006430DC006F08E3006E08E2006D087C
:101AF600E1006C08E0000A168A1187200A128A158E
:101B06005C0803179E001E0883120313CF001330D0
:101B16000A168A1529270A128A1501300313E807BF
:101B2600003003180130E907003003180130EA07D6
:101B3600003003180130EB0700308312C20000307A
:101B4600C1002730C0001030BF0083166B08831217
:101B5600C60083166A088312C500831669088312B5
:101B6600C400831668088312C3000A168A118F21DF
:101B76000A128A153F08831603179E001E08831251
:101B86000313CF0014300A168A1529270A128A155C
:101B960000300313DF000030DE000030DD0064306B
:101BA600DC0000308312C2000030C1000030C000EB
:101BB6006430BF0083166B088312C60083166A085A
:101BC6008312C500831669088312C4008316680849
:101BD6008312C3000A168A118F210A128A15420837
:101BE6008316E300831241088316E200831240083D
:101BF6008316E10083123F088316E0000A168A1155
:101C060087200A128A155C0803179E001E08831295
:101C16000313CF0015300A168A1529270A128A15CA
:101C260000300313DF000030DE000030DD006430DA
:101C3600DC006B08E3006A08E2006908E100680856
:101C4600E0000A168A1187200A128A155C08031713
:101C56009E001E0883120313CF0016300A168A153B
:101C660029270A128A1500300313D7000030D60040
:101C76000030D5000030D4000030AB000030AA00A0
:101C86000030A9000030A800B401B501B601B701C3
:101C9600662E02303D06031D592E0030EB00003043
:101CA600EA000030E9000030E800662E03303D0609
:101CB600031D662E00308312DF000030DE00003088
:101CC600DD000030DC00831653088312B50083164E
:101CD60052088312B400831651088312B300831688
:101CE60050088312B2000030B9000030B80000304E
:101CF600B7006430B6000A168A1575270A128A15C7
:101D0600350883165702031D982E8312340883164E
:101D16005602031D982E8312330883165502031D9F
:101D2600982E8312320883165402031C9D2E8312AA
:101D360089149F2E8312891083164B088312B500CF
:101D460083164A088312B400831649088312B30027
:101D5600831648088312B2000030B9000030B8007C
:101D66000030B7006430B6000A168A1575270A12C5
:101D76008A15350883165702031DD12E831234089F
:101D860083165602031DD12E83123308831655027D
:101D9600031DD12E8312320883165402031CD62E3D
:101DA60083120915D82E83120911C83083163802FA
:101DB600031CE42EBC01BD01BB018312DB018316AB
:101DC600B8013308803AFF0080307F02031DED2EF4
:101DD600C8303202031C012F003083160313A700FC
:101DE6000030A6000030A5000030A4000030AB0093
:101DF6000030AA000030A9000030A80083160313A3
:101E06004F082702031D112F4E082602031D112F0E
:101E16004D082502031D112F4C082402031C8B2F8D
:101E2600390803179E009F01A001A1012108831212
:101E36000313C20083160317200883120313C1007D
:101E4600831603171F0883120313C0008316031794
:101E56001E0883120313BF0083165B088312B500A6
:101E660083165A088312B400831659088312B300E6
:101E7600831658088312B2000030B9000030B8004B
:101E86000030B7000C30B6000A168A1575270A12FC
:101E96008A153508C6003408C5003308C400320860
:101EA600C3000A168A118F210A128A154208831660
:101EB600AB00831241088316AA00831240088316DA
:101EC600A90083123F088316A8000030A70000303F
:101ED600A6000030A5000030A400B9012B08031DA0
:101EE600812F2A08031D812F03302902031D7F2F0E
:101EF600E8302802031D7F2F031C8B2F003083162A
:101F06000313AB000030AA000330A900E730A80095
:101F16001C30831603133102203003193002031CD0
:101F2600A62F01308312DC07003003180130DD07CD
:101F3600003003180130DE07003003180130DF07D8
:101F46008316B001B1010A168A115B230A128A159B
:101F56008312531CFA2F83163A03031DD62F20082B
:101F6600D407210803110318013E031DD5072208D3
:101F760003110318013E031DD60723080311031896
:101F8600013E031DD7070130A407003003180130B6
:101F9600A507003003180130A607003003180130EA
:101FA600A707B201B30102303A06031DF82F200835
:101FB600D4022108031C210FD5022208031C220F7C
:101FC600D6022308031C230FD7020130A4070030D2
:101FD60003180130A507003003180130A6070030AA
:101FE60003180130A707B201B301831253100A1276
:101FF6008A11C6270A128A15D52C10308A000408C1
:10200600840A820700340034863422347E346D34E8
:10201600003400340234303406346334003404347B
:102026004034803452343F3406345B344F346634A3
:102036006D347D3427347F346F34003400340034FB
:102046004834003453345F349F347F34C3343F34D0
:1020560079348B343D349D3406341F346934C134AD
:10206600153437343F348F34673431345B34783445
:102076003E342A341D3476346E345B343934643459
:102086000F340034083420345F347C34C834DC34F4
:10209600CF3431346F34743410340E3475343034F4
:1020A60055345434D8347334673488346D34C93471
:1020B600D0342A341D3476346E34473446340634EC
:1020C60070340134503441345334533420340034A2
:1020D600503475344C34533465340034463420342B
:1020E60053346534743400345034203453346534F6
:1020F60074340034433469347234633475340034D0
:102106007B340034003400345F085E045D045C04F4
:102116000319D1288312CE01CE0A8316DF1BA42809
:1021260001308312CD0003108316DC0DDD0DDE0DAC
:10213600DF0D8312CD0B96280130CD004D08CE075A
:10214600902883165F086302031DB3285E086202A7
:10215600031DB3285D086102031DB3285C086002F5
:10216600031CC3285C08E0025D08031C5D0FE10246
:102176005E08031C5E0FE2025F08031C5F0FE302AA
:1021860001300310DF0CDE0CDD0CDC0CFF3E031D02
:10219600C42801308312CE02031DA42883166308C7
:1021A600DF006208DE006108DD006008DC00080070
:1021B6000A168A155A260A168A11013A031DF728A5
:1021C6000130831603179400140883120313DB07E8
:1021D60005305B06031DF7280130831603179400AC
:1021E600140883120313DB000A168A1530260A1612
:1021F6008A11013A031D0800831603171308831278
:102206000313D20083160317120883120313D10097
:1022160083160317110883120313D00083160317BE
:10222600100883120313CF000A128A1536205208AB
:10223600831603179300831203135108831603179B
:10224600920083120313500883160317910083121A
:1022560003134F0883160317900008000030FC0094
:102266000030FB000030FA000030F90073087204F9
:102276007104700403198629FD01FD0AF31B512917
:102286000130F8000310F00DF10DF20DF30DF80B0F
:1022960045290130F8007808FD0741290130F8008A
:1022A6000310F90DFA0DFB0DFC0DF80B53297308FD
:1022B6007702031D682972087602031D68297108D2
:1022C6007502031D682970087402031C79297008B9
:1022D600F4027108031C710FF5027208031C720FD9
:1022E600F6027308031C730FF7027914013003100A
:1022F600F30CF20CF10CF00CFF3E031D7A290130B1
:10230600FD02031D51297C08F3007B08F2007A08C0
:10231600F1007908F00008000030CB000030CA0058
:102326000030C9000030C8004208410440043F04A0
:102336000319E429CC01CC0AC21BAF290130C7001E
:102346000310BF0DC00DC10DC20DC70BA32901306F
:10235600C7004708CC079F290130C7000310C80DE6
:10236600C90DCA0DCB0DC70BB12942084602031D84
:10237600C62941084502031DC62940084402031D1B
:10238600C6293F084302031CD7293F08C302400859
:10239600031C400FC4024108031C410FC50242083A
:1023A600031C420FC602481401300310C20CC10CB4
:1023B600C00CBF0CFF3E031DD8290130CC02031D03
:1023C600AF294B08C2004A08C1004908C0004808A6
:1023D600BF0008000030C2000030C1000030C0005D
:1023E6006430BF005208C6005108C5005008C4003A
:1023F6004F08C3000A168A118F210A168A113F0850
:10240600BE3E8400831300080A168A15E3260A16C0
:102416008A110511051485108515073083160313D7
:10242600E5007C30E400E40B162AE50B162A0000D2
:10243600003083160313DF000030DE000030DD00BD
:102446000A30DC0000308312C2000030C1000030C8
:10245600C0000A30BF005208C6005108C500500827
:10246600C4004F08C3000A168A118F210A168A1162
:1024760042088316E300831241088316E2008312A2
:1024860040088316E10083123F088316E0000A160F
:102496008A1187200A168A115C08BE3E84008313BF
:1024A600000820380A168A15E3260A168A11051529
:1024B600051085108515073083160313E5007C305B
:1024C600E400E40B642AE50B642A0000003083165E
:1024D6000313DF000030DE000030DD000A30DC00D0
:1024E600831252088316E300831251088316E20012
:1024F600831250088316E10083124F088316E0000A
:102506000A168A1187200A168A115C08BE3E8400C4
:10251600831300080A168A15E3260A168A1105157A
:10252600051085108511073083160313E5007C30EE
:10253600E400E40B9C2AE50B9C2A000008008312A9
:10254600B500350884000A168A1100200A168A1179
:10255600E13E84000A168A1100200A168A110A161C
:102566008A15E3260A168A110511051085148515A4
:10257600073083120313B4007C30B300B30BC12AB7
:10258600B40BC12A0000831203133508013E8400F0
:102596000A168A1100200A168A11E13E84000A16DC
:1025A6008A1100200A168A110A168A15E3260A16C7
:1025B6008A1105110510851485110730831203133E
:1025C600B4007C30B300B30BE62AB40BE62A000055
:1025D600831203133508023E84000A168A1100206E
:1025E6000A168A11E13E84000A168A1100200A168C
:1025F6008A110A168A15E3260A168A11051105108C
:1026060085108515073083120313B4007C30B300A0
:10261600B30B0B2BB40B0B2B0000831203133508E3
:10262600033E84000A168A1100200A168A11E13E2A
:1026360084000A168A1100200A168A110A168A15BB
:10264600E3260A168A110511051085108511073033
:1026560083120313B4007C30B300B30B302BB40BDE
:10266600302B0000831203133508043E84000A163B
:102676008A1100200A168A11E13E84000A168A1180
:1026860000200A168A110A168A15E3260A168A11E6
:102696000515051485108515073083120313B4003C
:1026A6007C30B300B30B552BB40B552B0000080040
:1026B6003D08031DB02B3C08031DB02B00308312D0
:1026C600C2000030C1000030C0000A30BF008316CF
:1026D60057088312C600831656088312C500831650
:1026E60055088312C400831654088312C3000A16C1
:1026F6008A118F210A168A1142088316031794003D
:1027060083120313410883160317930083120313DE
:102716004008831603179200831203133F0883169B
:1027260003179100140883120313D20083160317AC
:10273600130883120313D10083160317120883129A
:102746000313D00083160317110883120313CF0057
:102756000A168A11FD250A168A1183163D03031DE2
:10276600062C3C08031D062C00308312C2000030E4
:10277600C1000030C0000A30BF0083166F08831204
:10278600C60083166E088312C50083166D08831271
:10279600C40083166C088312C3000A168A118F219F
:1027A6000A168A114208831603179400831203132C
:1027B60041088316031793008312031340088316F8
:1027C60003179200831203133F0883160317910021
:1027D600140883120313D2008316031713088312F7
:1027E6000313D10083160317120883120313D000B4
:1027F60083160317110883120313CF000A168A11D2
:10280600FD250A168A11023083163D06031D222C69
:102816003C08031D222C6B088312D20083166A081B
:102826008312D100831669088312D00083166808C4
:102836008312CF000A168A11FD250A168A11033063
:1028460083163D06031D382C3C08031D382C8312C5
:102856005F08D2005E08D1005D08D0005C08CF009A
:102866000A168A11FD250A168A1183162B08831269
:10287600D20083162A088312D100831629088312F0
:10288600D000831628088312CF000A168A11ED217C
:102896000A168A110A128A150B200A168A1183163D
:1028A60003133C08031D662C0A168A1530260A16E1
:1028B6008A11003A0319662C01308316031790001B
:1028C60010080313BD07043083163D06031D0800D8
:1028D600BD010800831603133C03031DB22C3B0302
:1028E600031DB02C53088312D2008316520883129C
:1028F600D100831651088312D00083165008831224
:10290600CF000A168A11FD250A168A118316530866
:102916000317930003135208031792000313510879
:102926000317910003135008031790000A168A1123
:10293600DB200A168A118316031713080313D30024
:10294600031712080313D200031711080313D1004B
:10295600031710080313D000CA2D6C30C52D0230A2
:102966003C06031DF72C02303B06031DF52C4B08D5
:102976008312D20083164A088312D10083164908AF
:102986008312D000831648088312CF000A168A11D4
:10299600FD250A168A1183164B08031793000313A5
:1029A6004A080317920003134908031791000313FB
:1029B6004808031790000A168A11DB200A168A11A6
:1029C6008316031713080313CB0003171208031308
:1029D600CA00031711080313C900031710080313CD
:1029E600C800CA2D7230C52D03303C06031D3C2D90
:1029F60003303B06031D3A2D2F088312D20083169F
:102A06002E088312D10083162D088312D000831658
:102A16002C088312CF000A168A11FD250A168A1180
:102A260083162F080317930003132E08031792002B
:102A360003132D080317910003132C0803179000A6
:102A46000A168A11DB200A168A1183160317130841
:102A56000313AF00031712080313AE000317110880
:102A66000313AD00031710080313AC00CA2D603022
:102A7600C52D04303C06031D812D04303B06031D85
:102A86007F2D5B088312D20083165A088312D10069
:102A9600831659088312D000831658088312CF0074
:102AA6000A168A11FD250A168A1183165B08031772
:102AB600930003135A0803179200031359080317C8
:102AC600910003135808031790000A168A11DB2099
:102AD6000A168A118316031713080313DB0003175C
:102AE60012080313DA00031711080313D90003179A
:102AF60010080313D800CA2D7830C52D05303C06C2
:102B0600031DCA2D05303B06031DC42D4F08831235
:102B1600D20083164E088312D10083164D08831205
:102B2600D00083164C088312CF000A168A11FD25A1
:102B36000A168A1183164F080317930003134E08CB
:102B46000317920003134D080317910003134C0853
:102B5600031790000A168A11DB200A168A118316BB
:102B6600031713080313CF00031712080313CE002D
:102B7600031711080313CD00031710080313CC0025
:102B8600CA2D66300A168A11A2220A168A110A1658
:102B96008A1569260A168A11013A031DEE2D831637
:102BA6003B08031DEE2D03303C060319E22D0130D0
:102BB60083160317950015080313BC07EE2D9430F2
:102BC6002C06263003192D062E042F040319DA2DA0
:102BD60083160313BC01063083163C06031D08004A
:102BE600BC010030AF000030AE000030AD00003058
:102BF600AC0008000030C2000030C1002730C00021
:102C06001030BF005208C6005108C5005008C40065
:102C16004F08C3000A168A118F210A168A11420824
:102C2600410440043F04031D5B2E83163D08031D2B
:102C3600212E3C08031D212E2D30532E3D03031D4E
:102C4600292E3C08031D292E5330532E02303D06F3
:102C5600031D322E3C08031D322E4530532E033001
:102C66003D06031D3B2E3C08031D3B2E2930532EEB
:102C76003C03031D402E2730532E02303C06031919
:102C8600522E03303C060319522E04303C06031D17
:102C96004E2E2430532E05303C06031D7A2E31303D
:102CA60084000A168A1100200A168A112038752E09
:102CB6000030C2000030C1002730C0001030BF0015
:102CC6005208C6005108C5005008C4004F08C3008A
:102CD6000A168A118F210A168A113F08BE3E840001
:102CE600831300080A168A15E3260A168A11831228
:102CF6000511051085148515073083160313E500A5
:102D06007C30E400E40B852EE50B852E0000831253
:102D160003135B03031D952E0B305702031C952EE0
:102D26000030CD2E00308316DF000030DE0000308C
:102D3600DD000A30DC0000308312C2000030C10022
:102D46000330C000E830BF005208C6005108C50075
:102D56005008C4004F08C3000A168A118F210A16AC
:102D66008A1142088316E300831241088316E200A3
:102D7600831240088316E10083123F088316E000A1
:102D86000A168A1187200A168A115C08BE3E84003C
:102D9600831300080A168A15E3260A168A110511F6
:102DA600051085148511073083160313E5007C3062
:102DB600E400E40BDC2EE50BDC2E0000023083126F
:102DC60003135B06031DED2E0B305702031CED2E7D
:102DD6000030332F8316E7013D03031D3D08031D15
:102DE600F82E2030E4006408E7003C08031DE701E4
:102DF6000030DF000030DE000030DD000A30DC008D
:102E060000308312C2000030C1000030C0006430C0
:102E1600BF005208C6005108C5005008C4004F083C
:102E2600C3000A168A118F210A168A1142088316D0
:102E3600E300831241088316E200831240088316DA
:102E4600E10083123F088316E0000A168A118720E4
:102E56000A168A115C08BE3E8400831300086704C4
:102E66000A168A15E3260A168A1105110510851019
:102E76008515073083160313E5007C30E400E40B68
:102E8600422FE50B422F00000330831203135B062B
:102E9600031D532F0B305702031C532F00309C2F5A
:102EA6008316E6013C030319602F02303C06031922
:102EB600602F03303D06031D642F2030E4006408B4
:102EC600E6000030DF000030DE000030DD000A30B2
:102ED600DC0000308312C2000030C1000030C000A8
:102EE6000A30BF005208C6005108C5005008C40089
:102EF6004F08C3000A168A118F210A168A11420842
:102F06008316E300831241088316E2008312400809
:102F16008316E10083123F088316E0000A168A1121
:102F260087200A168A115C08BE3E840083130008B7
:102F360066040A168A15E3260A168A110511051073
:102F460085108511073083160313E5007C30E400F5
:102F5600E40BAB2FE50BAB2F0000043083120313F9
:102F66005B06031DBC2F0B305702031CBC2F003021
:102F7600DF2F00308316DF000030DE000030DD007A
:102F86000A30DC00831252088316E30083125108CC
:102F96008316E200831250088316E10083124F085D
:102FA6008316E0000A168A1187200A168A115C0821
:102FB600BE3E8400831300080A168A15E3260A1605
:102FC6008A11051505148510851507308316031318
:102FD600E5007C30E400E40BEE2FE50BEE2F00005D
:102FE600013083160313E40064088312D7071530F3
:0A2FF6005702031C0800D701080071
:103C60008312861AD31E372ED31201300800861A0B
:103C70003C2ED3168316B801003008008312881931
:103C8000D31F452ED3130130080088194A2ED317AD
:103C90008316B8010030080083120819D31D532E73
:103CA000D311013008000819582ED3158316B80116
:103CB0000030080083120313061A531E622E53129B
:103CC00001300800061A672E53168316B80100301B
:103CD000080083120313051A531F712E531301306A
:103CE0000800051A762E53178316B8010030080015
:103CF0007E088A007F08820078260A168A158000CE
:103D0000840A04087D0603190034FF0A0319FE0A19
:103D10007C2E83120313B1008F2E831203136400D1
:103D2000831603178C188D2E831203133108031783
:103D30008D003F300313B0003008831603178C0545
:103D40000C1483120C080800D7341434CE345E34BB
:103D50001D345B34DB341634DF341F3476347D3469
:103D6000013400340434003400340034D534DD34FC
:103D700000340034D234043400340034F4340134D8
:103D800000340034B601B701321CCC2E3408B6071B
:103D90000318B70A3508B70701300310B40DB50D85
:103DA000FF3E031DCD2E01300310B30CB20CFF3EBD
:103DB000031DD42E32083304031DC42E3708B3006C
:103DC0003608B20008008312B100B2013108B00019
:103DD000320AEC2E0310B00CFF3E031DEA2E301CFD
:103DE000F52E831203138614F82E83120313861004
:103DF000861586110130B0003008B2070830320253
:103E0000031CE62E061506110800AC0083160317E6
:103E10008C18062F831203132C0803178D0003132D
:103E20002A0803178C003F300313AB002B088316BE
:103E300003178C0503108B1B03148B130C155530C3
:103E40008D00AA308D008C140C11031C08008B17F8
:103E50000800D100831603178C182A2F831203132E
:103E6000510803178D0003134F0803178C003F30D0
:103E70000313D0005008831603178C0503108B1B07
:103E800003148B130C1555308D00AA308D008C1443
:103E90000C11031C08008B170800831603178801F8
:103EA00089010313811301178B170B170B168B1046
:103EB0008B150B10F1309500C03096002030831226
:103EC00090000B308F00E5308E0083160C148312A7
:103ED0001014F03083168500F1308600FF30870023
:103EE000FF3088000130890008000030BE0000303B
:103EF000BD000030BC000030BB00321C932F3608E0
:103F0000BB07370803110318013E031DBC0738081F
:103F100003110318013E031DBD07390803110318DF
:103F2000013E031DBE070130BA000310B60DB70DE8
:103F3000B80DB90DBA0B952F01300310B50CB40CA8
:103F4000B30CB20CFF3E031D9D2F3508340433041F
:103F50003204031D7D2F3E08B5003D08B4003C0827
:103F6000B3003B08B2000800230822042104200407
:103F70000319F72FA901A90AA31BCC2F0130A80010
:103F80000310A00DA10DA20DA30DA80BC02F013091
:103F9000A8002808A907BC2F23082702031DDA2F31
:103FA00022082602031DDA2F21082502031DDA2F1D
:103FB00020082402031CEA2F2008A4022108031C65
:103FC000210FA5022208031C220FA6022308031CAE
:103FD000230FA70201300310A30CA20CA10CA00C0C
:103FE000FF3E031DEB2F0130A902031DCC2F270834
:103FF000A3002608A2002508A1002408A0000800AC
:04400E00F22FFF3F4F
:00000001FF
