:020000040000FA
:060000000A128A1110280B
:10000800FE00030E83120313AE000A08AF007F0838
:10001800B0000A128A157F280A128A11132883173A
:10002800A130FD001030FE008630FF009D308400B6
:100038000A168A1559250A128A118313D030FD0031
:100048001030FE008A30FF00BE3084000A168A1580
:1000580059250A128A115A30FD001D30FE00103051
:10006800FF004E3084000A168A1559250A128A1193
:10007800A0308400BE300A128A150020DB01DC01A2
:10008800DD01DE01DA0183010A128A158E2A0230A7
:100098000A168A1566250A128A1183160313E000C8
:1000A800E101E201E30101300A168A1566250A1208
:1000B8008A1183160313E400E50164088312B30070
:1000C800831665088312B4006430B5000030B600AA
:1000D8000A168A1580250A128A1133088316E60043
:1000E800831234088316E700E801E90100300A1694
:1000F8008A1566250A128A1183160313EA00EB0192
:10010800EC01ED016D088312B60083166C088312AA
:10011800B50083166B088312B40083166A0883122D
:10012800B3000030BA000030B9002730B8001030F2
:10013800B7000A168A1599260A128A1133088316F7
:10014800E607831234080318340FAB28AD2883164A
:10015800E707831235080318350FB328B528831627
:10016800E807831236080318360A8316E907660873
:10017800E00767080318670FC228C328E107680863
:100188000318680FC828C928E20769080318690A0C
:10019800E3076308CF006208CE006108CD0060085D
:1001A800CC0005300A168A1566250A128A118316AC
:1001B8000313E000E101E201E30104300A168A15A5
:1001C80066250A128A1183160313E400E501640800
:1001D8008312B300831665088312B4006430B50037
:1001E8000030B6000A168A1580250A128A113308CB
:1001F8008316E600831234088316E700E801E90154
:1002080003300A168A1566250A128A118316031303
:10021800EA00EB01EC01ED016D088312B6008316CC
:100228006C088312B50083166B088312B40083161A
:100238006A088312B3000030BA000030B9002730D2
:10024800B8001030B7000A168A1599260A128A11C2
:1002580033088316E607831234080318340F352948
:1002680037298316E707831235080318350F3D2908
:100278003F298316E807831236080318360A8316BF
:10028800E9076608E00767080318670F4C294D2936
:10029800E10768080318680F52295329E20769081B
:1002A8000318690AE3076308CB006208CA006108FB
:1002B800C9006008C80008300A168A1566250A129F
:1002C8008A1183160313E000E101E201E30107301C
:1002D8000A168A1566250A128A1183160313E40082
:1002E800E50164088312B300831665088312B4001D
:1002F8006430B5000030B6000A168A1580250A1247
:100308008A1133088316E600831234088316E7003F
:10031800E801E90106300A168A1566250A128A11CB
:1003280083160313EA00EB01EC01ED016D0883125B
:10033800B60083166C088312B50083166B08831207
:10034800B40083166A088312B3000030BA00003084
:10035800B9002730B8001030B7000A168A15992658
:100368000A128A1133088316E60783123408031821
:10037800340FBF29C1298316E707831235080318EC
:10038800350FC729C9298316E807831236080318C9
:10039800360A8316E9076608E00767080318670F37
:1003A800D629D729E10768080318680FDC29DD2951
:1003B800E20769080318690AE30763088312D9008A
:1003C800831662088312D800831661088312D70047
:1003D800831660088312D6000B300A168A15662524
:1003E8000A128A1183160313E000E101E201E30116
:1003F8000A300A168A1566250A128A11831603130B
:10040800E400E50164088312B300831665088312CB
:10041800B4006430B5000030B6000A168A1580258D
:100428000A128A1133088316E600831234088316E9
:10043800E700E801E90109300A168A1566250A125B
:100448008A1183160313EA00EB01EC01ED016D0834
:100458008312B60083166C088312B50083166B08E6
:100468008312B40083166A088312B3000030BA00FE
:100478000030B9002730B8001030B7000A168A15C6
:1004880099260A128A1133088316E607831234085C
:100498000318340F502A522A8316E70783123508A7
:1004A8000318350F582A5A2A8316E8078312360884
:1004B8000318360A8316E9076608E0076708031871
:1004C800670F672A682AE10768080318680F6D2A0A
:1004D8006E2AE20769080318690AE30763088312AA
:1004E800D100831662088312D00083166108831234
:1004F800CF00831660088312CE000E300A168A15C4
:1005080066250A128A1183160313E000E101E2014D
:10051800E3010D300A168A1566250A128A11831618
:100528000313E400E50164088312B3008316650829
:100538008312B4006430B5000030B6000A168A157C
:1005480080250A128A1133088316E60083123408BC
:100558008316E700E801E9010C300A168A156625BA
:100568000A128A1183160313EA00EB01EC01ED016C
:100578006D088312B60083166C088312B5008316C3
:100588006B088312B40083166A088312B300003024
:10059800BA000030B9002730B8001030B7000A168A
:1005A8008A1599260A128A1133088316E6078312D8
:1005B80034080318340FE12AE32A8316E707831265
:1005C80035080318350FE92AEB2A8316E807831242
:1005D80036080318360A8316E9076608E00767082D
:1005E8000318670FF82AF92AE10768080318680F43
:1005F800FE2AFF2AE20769080318690AE307630865
:100608008312D500831662088312D400831661080A
:100618008312D300831660088312D20013300A169F
:100628008A1566250A128A1183160313E000E10170
:10063800E201E30112300A168A1566250A128A11A8
:1006480083160313E400E50164088312B3008316DC
:1006580065088312B4006430B5000030B6000A168D
:100668008A1580250A128A1133088316E600831238
:1006780034088316E700E801E90111300A168A15E3
:1006880066250A128A1183160313EA00EB01EC01AE
:10069800ED016D088312B60083166C088312B5004D
:1006A80083166B088312B40083166A088312B3009A
:1006B8000030BA000030B9002730B8001030B70059
:1006C8000A168A1599260A128A1133088316E6072C
:1006D800831234080318340F722B742B8316E70720
:1006E800831235080318350F7A2B7C2B8316E807FD
:1006F800831236080318360A8316E9076608E007E6
:1007080067080318670F892B8A2BE1076808031805
:10071800680F8F2B902BE20769080318690AE30713
:100728006308DB006208DA006108D9006008D800B5
:1007380016300A168A1566250A128A1183160313BB
:10074800E000E101E201E30115300A168A15662589
:100758000A128A1183160313E400E5016408831260
:10076800B300831665088312B4006430B500003006
:10077800B6000A168A1580250A128A1133088316CC
:10078800E600831234088316E700E801E901143013
:100798000A168A1566250A128A1183160313EA00B7
:1007A800EB01EC01ED016D088312B60083166C08AD
:1007B8008312B50083166B088312B40083166A0887
:1007C8008312B3000030BA000030B9002730B800F7
:1007D8001030B7000A168A1599260A128A113308AA
:1007E8008316E607831234080318340FFC2BFE2BFC
:1007F8008316E707831235080318350F042C062CD7
:100808008316E807831236080318360A8316E907A1
:100818006608E00767080318670F132C142CE10714
:1008280068080318680F192C1A2CE20769080318BE
:10083800690AE3076308D7006208D6006108D50093
:100848006008D40019300A168A1566250A128A111A
:1008580083160313E000E101E201E30118300A16F0
:100868008A1566250A128A1183160313E400E50126
:1008780064088312B300831665088312B4006430D9
:10088800B5000030B6000A168A1580250A128A11AA
:1008980033088316E600831234088316E700E8015C
:1008A800E90117300A168A1566250A128A11831675
:1008B8000313EA00EB01EC01ED016D088312B600A9
:1008C80083166C088312B50083166B088312B40074
:1008D80083166A088312B3000030BA000030B900EA
:1008E8002730B8001030B7000A168A1599260A1260
:1008F8008A1133088316E607831234080318340F65
:10090800862C882C8316E707831235080318350FC1
:100918008E2C902C8316E807831236080318360AA3
:100928008316E9076608E00767080318670F9D2C18
:100938009E2CE10768080318680FA32CA42CE20773
:1009480069080318690AE3076308D3006208D2003C
:100958006108D1006008D00010300A168A15662593
:100968000A128A1183160313E000E1016008DE0011
:100978006108DF000F300A168A1566250A128A11E7
:1009880083160313E000E1016008DC006108DD0064
:1009980083125508031DDD2C5408031DDD2C273058
:1009A8005302031DDB2C10305202031DDB2C031CE9
:1009B800E72C003083120313D5000030D400003038
:1009C800D3006430D200831603135B08031DF92C8F
:1009D8005A08031DF92C27305902031DF72C103033
:1009E8005802031DF72C031C032D00308316031334
:1009F800DB000030DA000030D9006430D8008316FC
:100A080003134F08031D152D4E08031D152D273000
:100A18004D02031D132D10304C02031D132D031C12
:100A28001F2D003083160313CF000030CE00033093
:100A3800CD00E730CC00831603134B08031D312D7E
:100A48004A08031D312D27304902031D2F2D103070
:100A58004802031D2F2D031C3B2D00308316031362
:100A6800CB000030CA000330C900DD30C80083164F
:100A780003135708031D4E2D01305602031D4C2D3C
:100A880086305502031D4C2DA0305402031D4C2DF9
:100A9800031C582D003083160313D7000030D600EE
:100AA8000030D5006430D400831603135308031DA7
:100AB8006B2D01305202031D692D86305102031D32
:100AC800692DA0305002031D692D031C752D0030BF
:100AD80083160313D3000030D2000030D1006430F5
:100AE800D000831203135908031D872D5808031DCE
:100AF800872D27305702031D852D10305602031D00
:100B0800852D031C912D003083120313D90000306A
:100B1800D8000130D700F430D600831203135108EF
:100B2800031DA32D5008031DA32D27304F02031DBD
:100B3800A12D10304E02031DA12D031CAD2D003038
:100B480083120313D1000030D0000030CF000430EE
:100B5800CE00831203135108C3005008C2004F0887
:100B6800C1004E08C0005908C7005808C6005708F9
:100B7800C5005608C4000A168A11FA2043088316CD
:100B8800A300831242088316A20083124108831629
:100B9800A100831240088316A0000030A70000308F
:100BA800A6000030A5000030A40008000030831221
:100BB800C3000030C2002730C1001030C0008316C7
:100BC8006D088312C70083166C088312C60083164B
:100BD8006B088312C50083166A088312C4000A16BC
:100BE8008A11FA200A128A11430842044104400477
:100BF800031D402E5D08031D062E5C08031D062EEE
:100C08002D30382E5D03031D0E2E5C08031D0E2E9D
:100C18005330382E02305D06031D172E5C08031D65
:100C2800172E4530382E03305D06031D202E5C0834
:100C3800031D202E2930382E5C03031D252E273056
:100C4800382E02305C060319372E03305C06031970
:100C5800372E04305C06031D332E2430382E053021
:100C68005C06031D672E313084000A168A110020A5
:100C78000A128A112038622E0030C3000030C200E8
:100C88002730C1001030C00083166D088312C700DA
:100C980083166C088312C60083166B088312C5007E
:100CA80083166A088312C4000A168A11FA200A12E7
:100CB8008A114008BE3E8400831300080A168A156C
:100CC800A1250A128A11051105108514851507300A
:100CD80083160313EF007C30EE00EE0B712EEF0B42
:100CE800712E0000831203135E03031D812E0B3047
:100CF8005B02031C812E0030C12E00308316E300F6
:100D08000030E2000030E1000A30E00000308312D9
:100D1800C3000030C2000330C100E830C0008316B1
:100D28006D088312C70083166C088312C6008316E9
:100D38006B088312C50083166A088312C4000A165A
:100D48008A11FA200A128A1143088316E7008312CF
:100D580042088316E600831241088316E5008312D1
:100D680040088316E4000A168A15B4270A128A1165
:100D78006008BE3E8400831300080A168A15A12560
:100D88000A128A110511051085148511073083167A
:100D98000313EF007C30EE00EE0BD02EEF0BD02EBD
:100DA80000000230831203135E06031DE12E0B3090
:100DB8005B02031CE12E0030212F00308316E30074
:100DC8000030E2000030E1000A30E0000030831219
:100DD800C3000030C2000030C1006430C000831678
:100DE8006D088312C70083166C088312C600831629
:100DF8006B088312C50083166A088312C4000A169A
:100E08008A11FA200A128A1143088316E70083120E
:100E180042088316E600831241088316E500831210
:100E280040088316E4000A168A15B4270A128A11A4
:100E38006008BE3E8400831300080A168A15A1259F
:100E48000A128A11051105108510851507308316B9
:100E58000313EF007C30EE00EE0B302FEF0B302F3A
:100E680000000330831203135E06031D412F0B306D
:100E78005B02031C412F0030962F20308316EE00B2
:100E88006E0803179000831203135C08031D502F8C
:100E980002305D06031D532F83160317900100309F
:100EA80083160313E3000030E2000030E1000A304B
:100EB800E00000308312C3000030C2000030C100DF
:100EC8000A30C00083166D088312C70083166C08A9
:100ED8008312C60083166B088312C50083166A083E
:100EE8008312C4000A168A11FA200A128A114308CA
:100EF8008316E700831242088316E600831241082E
:100F08008316E500831240088316E4000A168A1542
:100F1800B4270A128A116008BE3E840083130008B1
:100F2800031710040A168A15A1250A128A11051139
:100F3800051085108511073083160313EF007C30E8
:100F4800EE00EE0BA52FEF0BA52F00000430831247
:100F580003135E06031DB62F0B305B02031CB62F6E
:100F68000030D12F00308316E3000030E20000305B
:100F7800E1000A30E0006D08E7006C08E6006B0845
:100F8800E5006A08E4000A168A15B4270A128A11CD
:100F98006008BE3E8400831300080A168A15A1253E
:100FA8000A128A1105150514851085150730831650
:100FB8000313EF007C30EE00EE0BE02FEF0BE02F79
:100FC8000000013083160313EE006E088312DB075E
:100FD80015305B02031C0800DB01080083120819A6
:100FE800DA1DF92FDA11013008000819FE2FDA1579
:100FF8008316B7010030080064008001840A0406E3
:101008000319003404060128BB01B81F1828B509C4
:10101800B609B709B809B50A0319B60A0319B70A10
:101028000319B80ABB01BB0AB41F2528B109B209C4
:10103800B309B409B10A0319B20A0319B30A0319A7
:10104800B40A340833043204310403196828BA0195
:10105800BA0AB41B3D280130B9000310B10DB20D16
:10106800B30DB40DB90B31280130B9003908BA07EE
:101078002D2834083802031D4B2833083702031D76
:101088004B2832083602031D4B2831083502031C51
:101098005B283108B5023208031C320FB602330848
:1010A800031C330FB7023408031C340FB802013095
:1010B8000310B40CB30CB20CB10CFF3E031D5C283A
:1010C8000130BA02031D3D283B0803197628B509EB
:1010D800B609B709B809B50A0319B60A0319B70A50
:1010E8000319B80A3808B4003708B3003608B20044
:1010F8003508B10008000B1CA128861F061B85288F
:101108005A155A19861B9128061F91280130AD00DF
:101118002D088316B90083125A145A19861F9D2860
:10112800061B9D280230AD002D088316B9008312D6
:101138005A14861B061FA1285A110C1CD0280130EE
:10114800AD002D088316B80701308312AD002D08B5
:101158008316B7070B3083128F00E5308E000C1012
:1011680083163308803AFF0080307F02031DBE28B3
:10117800C83032020318C828013083160313B00799
:101188000318B10A0030B107013083160313B20700
:101198000318B30A0030B3078B1C822A0030F3000F
:1011A8000030F2002730F1001030F00083125508AB
:1011B800F7005408F6005308F5005208F4000A1620
:1011C8008A119C200A128A1570088312AD002D0816
:1011D800AA000C300A168A15C4250A128A1500308E
:1011E80083120313A3000030A2000030A100643072
:1011F800A0000030F3000030F2000030F10064304D
:10120800F0005508F7005408F6005308F500520896
:10121800F4000A168A119C200A128A157308831290
:10122800A7007208A6007108A5007008A4000A1695
:101238008A1568270A128A152008AD002D08AA0009
:101248000D300A168A15C4250A128A150030831231
:101258000313A3000030A2000030A1006430A000F6
:101268005508A7005408A6005308A5005208A40072
:101278000A168A1568270A128A152008AD002D0853
:10128800AA000E300A168A15C4250A128A150030DB
:10129800F3000030F2002730F1001030F0000313A3
:1012A8005B08F7005A08F6005908F5005808F400DA
:1012B8000A168A119C200A128A1570088312AD003A
:1012C8002D08AA0011300A168A15C4250A128A1593
:1012D800003083120313A3000030A2000030A100E5
:1012E8006430A0000030F3000030F2000030F1005C
:1012F8006430F00083165B08F7005A08F6005908B6
:10130800F5005808F4000A168A119C200A128A155A
:1013180073088312A7007208A6007108A500700858
:10132800A4000A168A1568270A128A152008AD0033
:101338002D08AA0012300A168A15C4250A128A1521
:10134800003083120313A3000030A2000030A10074
:101358006430A00083165B088312A70083165A081E
:101368008312A600831659088312A500831658080D
:101378008312A4000A168A1568270A128A152008FB
:10138800AD002D08AA0013300A168A15C4250A12C2
:101398008A156430F0000030F10003135F08F30091
:1013A8005E08F2000A168A151D270A128A157008A7
:1013B8008312AD002D08AA0010300A168A15C4251C
:1013C8000A128A156430F0000030F10003135D083A
:1013D800F3005C08F2000A168A151D270A128A15FE
:1013E80070088312AD002D08AA000F300A168A155E
:1013F800C4250A128A150030F3000030F2002730A5
:10140800F1001030F00003135308F7005208F600FB
:101418005108F5005008F4000A168A119C200A1297
:101428008A1570088312AD002D08AA0017300A1615
:101438008A15C4250A128A15003083120313A300E3
:101448000030A2000030A1006430A0000030F3009A
:101458000030F2000030F1006430F00083165308C9
:10146800F7005208F6005108F5005008F4000A1673
:101478008A119C200A128A1573088312A700720821
:10148800A6007108A5007008A4000A168A15682726
:101498000A128A152008AD002D08AA0018300A166D
:1014A8008A15C4250A128A15003083120313A30073
:1014B8000030A2000030A1006430A0008316530859
:1014C8008312A700831652088312A60083165108B8
:1014D8008312A500831650088312A4000A168A15E1
:1014E80068270A128A152008AD002D08AA001930AD
:1014F8000A168A15C4250A128A158B100B10831236
:1015080003133008FF002F088A002E0E8300FE0EFA
:101518007E0E09000A168A150D260A128A150A1265
:101528008A114B200A128A150A168A1160260A1295
:101538008A150A128A1531250A128A150A128A1181
:10154800F2270A128A15003A0319992B83125D08AB
:10155800031D7E2B55085404530452040319C32A4F
:1015680055088316DB00831254088316DA008312A9
:1015780053088316D900831252088316D800013005
:101588008316D407003003180130D507003003183C
:101598000130D607003003180130D7070030831216
:1015A800C3000030C2002730C1001030C0008316CD
:1015B80057088312C700831656088312C60083167D
:1015C80055088312C500831654088312C4000A16EE
:1015D8008A11FA200A128A154008831603179900FF
:1015E80019080313EA0014300A168A15E8250A12A6
:1015F8008A1500300313E3000030E2000030E100F8
:101608006430E00000308312C3000030C2000030B4
:10161800C1006430C000831657088312C7008316C0
:1016280056088312C600831655088312C500831610
:1016380054088312C4000A168A11FA200A128A155D
:1016480043088316E700831242088316E6008312D4
:1016580041088316E500831240088316E4000A1641
:101668008A15B4270A128A15600803179900190801
:101678000313EA0015300A168A15E8250A128A1596
:1016880000300313E3000030E2000030E100643072
:10169800E0005708E7005608E6005508E50054083A
:1016A800E4000A168A15B4270A128A156008031777
:1016B800990019080313EA0016300A168A15E82556
:1016C8000A128A15003083120313D5000030D400A3
:1016D8000030D3000030D20000308316AB00003059
:1016E800AA000030A9000030A800DC01DD01DE01FD
:1016F800DF01992B02305D06031D8C2B0030831609
:10170800D7000030D6000030D5000030D400992B27
:1017180003305D06031D992B00308316D30000307B
:10172800D2000030D1000030D00083164F08831259
:10173800B60083164E088312B50083164D0883122F
:10174800B40083164C088312B3000030BA0000308E
:10175800B9000030B8000A30B7000A168A15992671
:101768000A128A1536085502031DC42B350854027F
:10177800031DC42B34085302031DC42B3308520223
:10178800031CC82B8914C92B891083164B08831294
:10179800B60083164A088312B500831649088312D7
:1017A800B400831648088312B3000030BA00003032
:1017B800B9000030B8000A30B7000A168A15992611
:1017C8000A128A1536085502031DF42B35085402EF
:1017D800031DF42B34085302031DF42B3308520263
:1017E800031CF82B0915F92B0911C8308316370289
:1017F800031C072C8312DC01DD018316BA01831256
:10180800DE018316B7013308803AFF0080307F027B
:10181800031D102CC8303202031C242C0030831600
:101828000313A7000030A6000030A5000030A40074
:101838000030AB000030AA000030A9000030A8003A
:1018480083120313510883162702031D3B2C8312AE
:10185800500883162602031D3B2C83124F0883165B
:101868002502031D3B2C83124E0883162402031CF9
:10187800AD2C3808031799009A019B019C011C089C
:1018880083120313C300831603171B088312031361
:10189800C200831603171A0883120313C1008316A4
:1018A8000317190883120313C0005908B600580813
:1018B800B5005708B4005608B3000030BA0000302D
:1018C800B9000030B8000C30B7000A168A159926FE
:1018D8000A128A153608C7003508C6003408C5003C
:1018E8003308C4000A168A11FA200A128A15430816
:1018F8008316AB00831242088316AA00831241089C
:101908008316A900831240088316A8000030A70098
:101918000030A6000030A5000030A400B8012B0854
:10192800031DA32C2A08031DA32C03302902031D21
:10193800A12CE8302802031DA12C031CAD2C00307B
:1019480083160313AB000030AA000330A900E73068
:10195800A8001C308316031331022030031930020B
:10196800031CC62C0130D007003003180130D10702
:10197800003003180130D207003003180130D307B4
:10198800B001B1010A168A114A220A128A155A1C94
:101998002B2D83163903031DFB2C0A168A11C3212C
:1019A8000A128A154008D207410803110318013E9C
:1019B800031DD307420803110318013E031DD40772
:1019C800430803110318013E031DD5070130831690
:1019D800A407003003180130A507003003180130B0
:1019E800A607003003180130A707B201B30102307F
:1019F8003906031D292D0A168A1158210A128A153B
:101A08004008D207410803110318013E031DD307FC
:101A1800420803110318013E031DD40743080311AC
:101A28000318013E031DD50701308316A4070030B3
:101A380003180130A507003003180130A60700304D
:101A480003180130A707B201B30183125A100A160E
:101A58008A1560260A128A15982A83125C080319C7
:101A680008000A168A151C250A128A15003A031955
:101A7800080083163A080319F12F03303A06031DAC
:101A88005F2D94302C06263003192D062E042F04C2
:101A980003195F2D83120313DC018316BA01831225
:101AA800DE0100308316AF000030AE000030AD001C
:101AB8000030AC000800831603134F084E044D0491
:101AC8004C04031D6F2D0030CF000030CE000330D2
:101AD800CD00E730CC004B084A0449044804031DF4
:101AE8007D2D0030CB000030CA000330C900DD3046
:101AF800C80083125908580457045604031D8C2D36
:101B08000030D9000030D8000130D700F430D600BA
:101B1800510850044F044E04031D9A2D0030D10083
:101B28000030D0000030CF000430CE008316BA0158
:101B38008312DE010030C3000030C2002730C1002C
:101B48001030C00083164F088312C70083164E0852
:101B58008312C60083164D088312C50083164C08ED
:101B68008312C4000A168A11FA200A128A1540083C
:101B78008316ED006D08EA0000300A168A15E8257C
:101B88000A128A1500300313E3000030E200003027
:101B9800E1006430E00000308312C3000030C2006E
:101BA8000030C1006430C00083164F088312C7009C
:101BB80083164E088312C60083164D088312C5008B
:101BC80083164C088312C4000A168A11FA200A12D6
:101BD8008A1543088316E700831242088316E60035
:101BE800831241088316E500831240088316E40037
:101BF8000A168A15B4270A128A156008ED006D08BE
:101C0800EA0001300A168A15E8250A128A150030FA
:101C18000313E3000030E2000030E1006430E0002C
:101C28004F08E7004E08E6004D08E5004C08E400C0
:101C38000A168A15B4270A128A156008ED006D087D
:101C4800EA0002300A168A15E8250A128A150030B9
:101C580083120313C3000030C2002730C1001030C4
:101C6800C00083164B088312C70083164A088312E4
:101C7800C600831649088312C500831648088312D4
:101C8800C4000A168A11FA200A128A154008831617
:101C9800ED006D08EA0003300A168A15E8250A12D5
:101CA8008A1500300313E3000030E2000030E10041
:101CB8006430E00000308312C3000030C2000030FE
:101CC800C1006430C00083164B088312C700831616
:101CD8004A088312C600831649088312C500831672
:101CE80048088312C4000A168A11FA200A128A15B3
:101CF80043088316E700831242088316E60083121E
:101D080041088316E500831240088316E4000A168A
:101D18008A15B4270A128A156008ED006D08EA00D2
:101D280004300A168A15E8250A128A1500300313AA
:101D3800E3000030E2000030E1006430E0004B08CE
:101D4800E7004A08E6004908E5004808E4000A16E2
:101D58008A15B4270A128A156008ED006D08EA0092
:101D680005300A168A15E8250A128A1500308312EA
:101D78000313C3000030C2002730C1001030C00078
:101D88005908C7005808C6005708C5005608C400B7
:101D98000A168A11FA200A128A1540088316ED00DD
:101DA8006D08EA0006300A168A15E8250A128A150F
:101DB80000300313E3000030E2000030E10064303B
:101DC800E00000308312C3000030C2000030C100C0
:101DD8006430C0005908C7005808C6005708C50035
:101DE8005608C4000A168A11FA200A128A154308EE
:101DF8008316E700831242088316E600831241081F
:101E08008316E500831240088316E4000A168A1533
:101E1800B4270A128A156008ED006D08EA00073039
:101E28000A168A15E8250A128A1500300313E300FA
:101E38000030E2000030E1006430E000831259080D
:101E48008316E700831258088316E60083125708A2
:101E58008316E500831256088316E4000A168A15CD
:101E6800B4270A128A156008ED006D08EA000830E8
:101E78000A168A15E8250A128A15003083120313F8
:101E8800C3000030C2002730C1001030C000510824
:101E9800C7005008C6004F08C5004E08C4000A16FF
:101EA8008A11FA200A128A1540088316ED006D0877
:101EB800EA0009300A168A15E8250A128A15003040
:101EC8000313E3000030E2000030E1006430E0007A
:101ED80000308312C3000030C2000030C1006430FB
:101EE800C0005108C7005008C6004F08C5004E087A
:101EF800C4000A168A11FA200A128A1543088316A2
:101F0800E700831242088316E6008312410883160D
:101F1800E500831240088316E4000A168A15B427E0
:101F28000A128A156008ED006D08EA000A300A16E0
:101F38008A15E8250A128A1500300313E3000030D9
:101F4800E2000030E1006430E0008312510883169B
:101F5800E700831250088316E60083124F088316A1
:101F6800E50083124E088316E4000A168A15B42782
:101F78000A128A156008ED006D08EA000B300A168F
:101F88008A15E8250A128A1501300313ED006D0839
:101F98008312DC075108C3005008C2004F08C10073
:101FA8004E08C0005908C7005808C6005708C500A1
:101FB8005608C4000A168A11FA2043088316A3009B
:101FC800831242088316A200831241088316A100D7
:101FD800831240088316A00008003A08031D080071
:101FE80083125C088316ED006D08BA000130ED001D
:101FF8006D088312DE00080010308A000408840A85
:10200800820700340034863422347E346D34003440
:102018000034023430340634633400340434403439
:10202800803452343F3406345B344F3466346D3474
:102038007D3427347F346F3400340034003448341E
:10204800003453345F349F347F34C3343F3479349D
:102058008B343D349D3406341F346934C13415340F
:1020680037343F348F34673431345B3478343E341A
:102078002A341D3476346E345B34393464340F3486
:102088000034083420345F347C34C834DC34CF3432
:1020980031346F34743410340E347534303455346C
:1020A8005434D8347334673488346D34C934D034F4
:1020B8002A341D3476346E3447344634063470344A
:1020C80001345034413453345334203400345034C0
:1020D80075344C3453346534003446342034533426
:1020E80065347434003450342034533465347434D3
:0E20F800003443346934723463347534003478
:10210C007B34003400340034D7341434CE345E3491
:10211C001D345B34DB341634DF341F3476347D34B9
:10212C0001340034D534DD34003400340030FC008C
:10213C000030FB000030FA000030F9007308720424
:10214C00710470040319F128FD01FD0AF31BBC286E
:10215C000130F8000310F00DF10DF20DF30DF80B3A
:10216C00B0280130F8007808FD07AC280130F800E1
:10217C000310F90DFA0DFB0DFC0DF80BBE287308BE
:10218C007702031DD32872087602031DD328710829
:10219C007502031DD32870087402031CE428700810
:1021AC00F4027108031C710FF5027208031C720F04
:1021BC00F6027308031C730FF70279140130031035
:1021CC00F30CF20CF10CF00CFF3E031DE528013072
:1021DC00FD02031DBC287C08F3007B08F2007A0882
:1021EC00F1007908F00008000030CC000030CB0082
:1021FC000030CA000030C9004308420441044004C6
:10220C0003194F29CD01CD0AC31B1A290130C8006F
:10221C000310C00DC10DC20DC30DC80B0E2901302A
:10222C00C8004808CD070A290130C8000310C90DA1
:10223C00CA0DCB0DCC0DC80B1C2943084702031D3E
:10224C00312942084602031D312941084502031D6C
:10225C00312940084402031C42294008C4024108A9
:10226C00031C410FC5024208031C420FC60243085F
:10227C00031C430FC702491401300310C30CC20CDA
:10228C00C10CC00CFF3E031D43290130CD02031DC0
:10229C001A294C08C3004B08C2004A08C10049085F
:1022AC00C00008005C088312C40083165D0883120A
:1022BC00C5000030C51BFF30C600C70083162008C0
:1022CC008312C40283162108031C210F6E29702966
:1022DC008312C50283162208031C220F7629782943
:1022EC008312C60283162308031C230F7E29802920
:1022FC008312C702831683124708CB004608CA0014
:10230C004508C9004408C8000030B4000030B300D0
:10231C000030B2006430B1004B08B8004A08B70076
:10232C004908B6004808B5000A128A1508200A1692
:10233C008A1132088316DD00831231088316DC0003
:10234C0000308312B4000030B3000030B2006430AF
:10235C00B1004B08B8004A08B7004908B600480855
:10236C00B5000A168A11D2223408C3003308C20001
:10237C003208C1003108C000080020088312C400D4
:10238C00831621088312C500831622088312C60007
:10239C00831623088312C70083165E088312C800B5
:1023AC0083165F088312C9000030C91BFF30CA00B6
:1023BC00CB004808C40749080318490FE629E72948
:1023CC00C5074A0803184A0FEC29ED29C6074B0824
:1023DC0003184B0AC70747088316E3008312460805
:1023EC008316E200831245088316E1008312440829
:1023FC008316E00000308312B4000030B3000030CC
:10240C00B2006430B100831663088312B8008316DF
:10241C0062088312B700831661088312B600831614
:10242C0060088312B5000A128A1508200A168A1150
:10243C0032088316DF00831231088316DE00003069
:10244C008312B4000030B3000030B2006430B1002D
:10245C00831663088312B800831662088312B700D0
:10246C00831661088312B600831660088312B500C8
:10247C000A168A11D2223408C3003308C20032086B
:10248C00C1003108C000080083125D08031D652AD5
:10249C005C08031D652A55088316ED008312540849
:1024AC008316EC00831253088316EB008312520838
:1024BC008316EA000A128A11DA250A168A115D03BC
:1024CC00031D792A5C08031D792A83165B08ED002D
:1024DC005A08EC005908EB005808EA000A128A1155
:1024EC00DA250A168A1102305D06031D8E2A5C0855
:1024FC00031D8E2A83165708ED005608EC0055086C
:10250C00EB005408EA000A128A11DA250A168A111D
:10251C0003305D06031DA32A5C08031DA32A831642
:10252C005308ED005208EC005108EB005008EA008B
:10253C000A128A11DA250A168A1183162B08ED0065
:10254C002A08EC002908EB002808EA000A168A1170
:10255C0018240A168A110A168A1535260A168A11A3
:10256C00831203135C08031DCB2A0A168A1529252E
:10257C000A168A11003A0319CB2A01308316031765
:10258C009100110883120313DD07043083125D06DA
:10259C00031D0800DD010800BB01B41FE22AB109CC
:1025AC00B209B309B409B10A0319B20A0319B30A7F
:1025BC000319B40ABB01BB0AB81FF32AB509B60943
:1025CC00B709B809B50A0319B60A0319B70A0319EA
:1025DC00B80A0130B9003908BB060030BF00003022
:1025EC00BE000030BD000030BC003408330432049F
:1025FC0031040319482BBA01BA0AB41B132B01304E
:10260C00B9000310B10DB20DB30DB40DB90B072BFE
:10261C000130B9003908BA07032B0130B900031097
:10262C00BC0DBD0DBE0DBF0DB90B152B34083802FA
:10263C00031D2A2B33083702031D2A2B32083602BE
:10264C00031D2A2B31083502031C3B2B3108B50224
:10265C003208031C320FB6023308031C330FB702C7
:10266C003408031C340FB8023C1401300310B40CB2
:10267C00B30CB20CB10CFF3E031D3C2B0130BA0263
:10268C00031D132B3B080319562BBC09BD09BE09AE
:10269C00BF09BC0A0319BD0A0319BE0A0319BF0AF4
:1026AC003F08B4003E08B3003D08B2003C08B1003E
:1026BC0008008312B600360884000A168A1100201E
:1026CC000A168A11E13E84000A168A1100200A16A5
:1026DC008A110A168A15A1250A168A1105110510E8
:1026EC0085148515073083120313B5007C30B400B4
:1026FC00B40B7E2BB50B7E2B000083120313360814
:10270C00013E84000A168A1100200A168A11E13E45
:10271C0084000A168A1100200A168A110A168A15D4
:10272C00A1250A168A11051105108514851107308B
:10273C0083120313B5007C30B400B40BA32BB50B80
:10274C00A32B0000831203133608023E84000A16E2
:10275C008A1100200A168A11E13E84000A168A1199
:10276C0000200A168A110A168A15A1250A168A1142
:10277C000511051085108515073083120313B5005C
:10278C007C30B400B40BC82BB50BC82B00008312E3
:10279C0003133608033E84000A168A1100200A1619
:1027AC008A11E13E84000A168A1100200A168A1149
:1027BC000A168A15A1250A168A110511051085100D
:1027CC008511073083120313B5007C30B400B40BB1
:1027DC00ED2BB50BED2B0000831203133608043ED2
:1027EC0084000A168A1100200A168A11E13E840020
:1027FC000A168A1100200A168A110A168A15A125B2
:10280C000A168A11051505148510851507308312D3
:10281C000313B5007C30B400B40B122CB50B122C86
:10282C000000080000308312C3000030C2000030EA
:10283C00C1006430C00083166D088312C700831674
:10284C006C088312C60083166B088312C5008316AE
:10285C006A088312C4000A168A11FA200A168A1111
:10286C004008BE3E8400831300080A168A15A12571
:10287C000A168A1105110514851085150730831663
:10288C000313EF007C30EE00EE0B4A2CEF0B4A2CBE
:10289C000000003083160313E3000030E200003028
:1028AC00E1000A30E00000308312C3000030C200A7
:1028BC000030C1000A30C00083166D088312C700B7
:1028CC0083166C088312C60083166B088312C5002E
:1028DC0083166A088312C4000A168A11FA200A1693
:1028EC008A1143088316E700831242088316E60018
:1028FC00831241088316E500831240088316E40016
:10290C000A168A15B4270A168A116008BE3E84007E
:10291C008313000820380A168A15A1250A168A1175
:10292C000515051085108515073083160313EF0068
:10293C007C30EE00EE0BA02CEF0BA02C0000003036
:10294C0083160313E3000030E2000030E1000A308C
:10295C00E0006D08E7006C08E6006B08E5006A080B
:10296C00E4000A168A15B4270A168A116008BE3EBE
:10297C008400831300080A168A15A1250A168A11E9
:10298C000515051085108511073083160313EF000C
:10299C007C30EE00EE0BD02CEF0BD02C000008009E
:1029AC0083125E03031D382D00308316E3000030C4
:1029BC00E2002730E1001030E0006D08E7006C0801
:1029CC00E6006B08E5006A08E4000A168A15B427CD
:1029DC000A168A116308031D002D6208031D002DC1
:1029EC0023306102031DFE2C28306002031DFE2CD7
:1029FC00031C282D283083160317900023309100D8
:102A0C00003092000030930010080313EA02031701
:102A1C001108031C110F132D152D0313EB020317B3
:102A2C001208031C120F1B2D1D2D0313EC02031790
:102A3C001308031C130F232D252D0313ED0203176D
:102A4C000313382DE83083160313EA0703300318F9
:102A5C000430EB07003003180130EC07003003188A
:102A6C000130ED07023083125E06031D9B2D0030F2
:102A7C008316E3000030E2000330E100E830E000B0
:102A8C006D08E7006C08E6006B08E5006A08E400D6
:102A9C000A168A15B4270A168A116308031D632DBA
:102AAC006208031D632D03306102031D612D843008
:102ABC006002031D612D031C8B2D843083160317BC
:102ACC009000033091000030920000309300100809
:102ADC000313EA0203171108031C110F762D782D2E
:102AEC000313EB0203171208031C120F7E2D802D0B
:102AFC000313EC0203171308031C130F862D882DE8
:102B0C000313ED02031703139B2D64308316031379
:102B1C00EA07003003180130EB07003003180130CE
:102B2C00EC07003003180130ED07033083125E060A
:102B3C00031DFD2D00308316E3000030E200003051
:102B4C00E1006430E0006D08E7006C08E6006B08FB
:102B5C00E5006A08E4000A168A15B4270A168A11D9
:102B6C006308031DC52D6208031DC52D6108031DD7
:102B7C00C52D5A306002031DC32D031CED2D5A3098
:102B8C008316031790000030910000309200003043
:102B9C00930010080313EA0203171108031C110F0A
:102BAC00D82DDA2D0313EB0203171208031C120F96
:102BBC00E02DE22D0313EC0203171308031C130F73
:102BCC00E82DEA2D0313ED0203170313FD2D0A3034
:102BDC0083160313EA07003003180130EB070030AB
:102BEC0003180130EC07003003180130ED070430F6
:102BFC0083125E06031D080000308316E3000030CC
:102C0C00E2000030E1000A30E0006D08E7006C08DB
:102C1C00E6006B08E5006A08E4000A168A15B4277A
:102C2C000A168A116308031D272E6208031D272E1E
:102C3C006108031D272E09306002031D252E031C7D
:102C4C004F2E09308316031790000030910000308E
:102C5C0092000030930010080313EA0203171108C6
:102C6C00031C110F3A2E3C2E0313EB020317120810
:102C7C00031C120F422E442E0313EC0203171308ED
:102C8C00031C130F4A2E4C2E0313ED0203170313D0
:102C9C000800013083160313EA07003003180130D3
:102CAC00EB07003003180130EC070030031801303B
:102CBC00ED070800831203135C03031D9F2E83167C
:102CCC003A03031D9D2E4F08ED004E08EC004D08F5
:102CDC00EB004C08EA000A128A11DA250A168A114E
:102CEC0083164F080317970003134E08031796001B
:102CFC0003134D080317950003134C080317940096
:102D0C000A168A15D8260A168A118316031717086D
:102D1C000313CF00031716080313CE00031715086F
:102D2C000313CD00031714080313CC00C92F6C3008
:102D3C00C42F02305C06031DDE2E023083163A06C9
:102D4C00031DDC2E4B08ED004A08EC004908EB0093
:102D5C004808EA000A128A11DA250A168A11831623
:102D6C004B080317970003134A0803179600031325
:102D7C0049080317950003134808031794000A1613
:102D8C008A15D8260A168A118316031717080313F7
:102D9C00CB00031716080313CA00031715080313F7
:102DAC00C900031714080313C800C92F7230C42FAD
:102DBC0003305C06031D1D2F033083163A06031DDA
:102DCC001B2F2F08ED002E08EC002D08EB002C0813
:102DDC00EA000A128A11DA250A168A1183162F08BC
:102DEC000317970003132E080317960003132D08DF
:102DFC000317950003132C08031794000A168A1561
:102E0C00D8260A168A118316031717080313AF0066
:102E1C00031716080313AE00031715080313AD00B0
:102E2C00031714080313AC00C92F6030C42F0430EF
:102E3C005C06031D712F043083163A06031D6F2F99
:102E4C00831259088316ED00831258088316EC0080
:102E5C00831257088316EB00831256088316EA0078
:102E6C000A128A11DA250A168A11590883160317D1
:102E7C0097008312031358088316031796008312C6
:102E8C000313570883160317950083120313560870
:102E9C008316031794000A168A15D8260A168A1167
:102EAC0083160317170883120313D900831603170D
:102EBC00160883120313D800831603171508831200
:102ECC000313D70083160317140883120313D600B9
:102EDC00C92F7830C42F05305C06031DC92F05306F
:102EEC0083163A06031DC32F831251088316ED0077
:102EFC00831250088316EC0083124F088316EB00E4
:102F0C0083124E088316EA000A128A11DA250A1671
:102F1C008A11510883160317970083120313500864
:102F2C00831603179600831203134F088316031797
:102F3C009500831203134E088316031794000A1688
:102F4C008A15D8260A168A118316031717088312B6
:102F5C000313D10083160317160883120313D00032
:102F6C0083160317150883120313CF008316031758
:102F7C00140883120313CE00C92F66300A168A1167
:102F8C005F230A168A110A168A1546250A168A1113
:102F9C00013A031DF02F83163A08031DF02F03305E
:102FAC0083125C060319E32F013083160317980074
:102FBC00180883120313DC07F02F943083162C06A9
:102FCC00263003192D062E042F040319DA2F831231
:102FDC000313DC01063083125C06031D0800DC01C0
:102FEC0000308316AF000030AE000030AD00003072
:042FFC00AC0008001D
:103A20000434003400340034D2340434003400341C
:103A3000F4340134003400348819DA1F222DDA13EB
:103A4000013008008819272DDA178316B7010030D6
:103A500008008312861ADA1E302DDA1201300800AF
:103A6000861A352DDA168316B70100300800831246
:103A70000313061A5A1E3F2D5A1201300800061A67
:103A8000442D5A168316B701003008008312031321
:103A9000051A5A1F4E2D5A1301300800051A532DCE
:103AA0005A178316B701003008007E088A007F0885
:103AB000820055250A168A158000840A04087D06AE
:103AC00003190034FF0A0319FE0A592D8312B200AC
:103AD0006B2D831203136400831603178C18692D52
:103AE00083120313320803178D003F300313B10014
:103AF0003108831603178C050C1483120C08080078
:103B0000B701B801331C8A2D3508B7070318B80A66
:103B10003608B80701300310B50DB60DFF3E031D82
:103B20008B2D01300310B40CB30CFF3E031D922DFE
:103B300033083404031D822D3808B4003708B3005D
:103B4000080083120313B200B3013208B100330A34
:103B5000AB2D0310B10CFF3E031DA92D311CB42D5C
:103B6000831203138614B72D831203138610861550
:103B700086110130B1003108B30708303302031C4D
:103B8000A52D061506110800AC00831603178C1826
:103B9000C52D831203132C0803178D0003132A0865
:103BA00003178C003F300313AB002B088316031759
:103BB0008C0503108B1B03148B130C1555308D00D3
:103BC000AA308D008C140C11031C08008B17080000
:103BD000EC0003178C18E92D03136C0883120317EC
:103BE0008D00831603136A08831203178C003F307D
:103BF00083160313EB006B0803178C0503108B1B54
:103C000003148B130C1555308D00AA308D008C14C5
:103C10000C11031C08008B1708008316031788017A
:103C200089010313811301178B170B170B168B10C8
:103C30008B150B10F1309500C030960020308312A8
:103C400090000B308F00E5308E0083160C14831229
:103C50001014F03083168500F1308600FF308700A5
:103C6000FF30880001308900080083120313B60179
:103C7000891C3E2E8030B4003408B607091D442E3E
:103C80002030B4003408B6075A1D4A2E0830B4005C
:103C90003408B60736080A168A15A1250A168A15A9
:103CA0000515051485108511073083120313B5001F
:103CB0007C30B400B40B5A2EB50B5A2E000008000D
:103CC0005508031D712E0F305402031D6F2E423014
:103CD0005302031D6F2E4B305202031D6F2E031C27
:103CE0007B2E003083120313D5000030D400003047
:103CF000D3000030D200831203135508031D8E2E0B
:103D000001305402031D8C2E86305302031D8C2E6D
:103D1000A0305202031D8C2E031C080000308312B9
:103D20000313D5000130D4008630D3009F30D20079
:103D300008000030BF000030BE000030BD00003081
:103D4000BC00331CB72E3708BC0738080311031812
:103D5000013E031DBD07390803110318013E031D71
:103D6000BE073A0803110318013E031DBF070130C7
:103D7000BB000310B70DB80DB90DBA0DBB0BB92EB2
:103D800001300310B60CB50CB40CB30CFF3E031D90
:103D9000C12E3608350434043304031DA12E3F0818
:103DA000B6003E08B5003D08B4003C08B30008006A
:103DB0000A168A1537250A168A15013A031DF02EB0
:103DC00001308316EE006E088312DE0705305E06B2
:103DD000031DF02E01308316EE006E088312DE0004
:103DE0000A168A1529250A168A15013A031D0800A4
:103DF0008316031717080313ED00031716080313A0
:103E0000EC00031715080313EB0003171408031342
:103E1000EA000A168A11D62483166D080317970044
:103E200003136C080317960003136B080317950020
:103E300003136A08031794000800F601F31F272FE5
:103E4000F209F309F20A0319F30AF601F60AF11F5F
:103E50002E2FF009F109F00A0319F10A7008710414
:103E600003195B2FF501F50AF11B422F01300310F6
:103E7000F00DF10DFF3E031D372F0130F4007408E3
:103E8000F507342F71087302031D482F7008720262
:103E9000031C502F7008F2027108031CF303F30295
:103EA00001300310F10CF00CFF3E031D512F0130C7
:103EB000F502031D422F76080319632FF209F30957
:103EC000F20A0319F30A7308F1007208F0000800FF
:103ED00023082204210420040319AB2FA901A90AF5
:103EE000A31B802F0130A8000310A00DA10DA20D6F
:103EF000A30DA80B742F0130A8002808A907702F64
:103F000023082702031D8E2F22082602031D8E2F51
:103F100021082502031D8E2F20082402031C9E2F3A
:103F20002008A4022108031C210FA5022208031C5B
:103F3000220FA6022308031C230FA702013003103F
:103F4000A30CA20CA10CA00CFF3E031D9F2F01305F
:103F5000A902031D802F2708A3002608A200250818
:103F6000A1002408A0000800630862046104600442
:103F70000319F72FE901E90AE31BCC2F0130E80010
:103F80000310E00DE10DE20DE30DE80BC02F013051
:103F9000E8006808E907BC2F63086702031DDA2FF1
:103FA00062086602031DDA2F61086502031DDA2F1D
:103FB00060086402031CEA2F6008E4026108031C25
:103FC000610FE5026208031C620FE6026308031C2E
:103FD000630FE70201300310E30CE20CE10CE00C8C
:103FE000FF3E031DEB2F0130E902031DCC2F6708B4
:103FF000E3006608E2006508E1006408E0000800EC
:04400E00F22FFF3F4F
:00000001FF
